{
  "_format": "hh-sol-artifact-1",
  "contractName": "NFTMarketplace",
  "sourceName": "contracts/NFTMarketplace.sol",
  "abi": [
    {
      "inputs": [],
      "stateMutability": "nonpayable",
      "type": "constructor"
    },
    {
      "anonymous": false,
      "inputs": [
        {
          "indexed": true,
          "internalType": "address",
          "name": "owner",
          "type": "address"
        },
        {
          "indexed": true,
          "internalType": "address",
          "name": "approved",
          "type": "address"
        },
        {
          "indexed": true,
          "internalType": "uint256",
          "name": "tokenId",
          "type": "uint256"
        }
      ],
      "name": "Approval",
      "type": "event"
    },
    {
      "anonymous": false,
      "inputs": [
        {
          "indexed": true,
          "internalType": "address",
          "name": "owner",
          "type": "address"
        },
        {
          "indexed": true,
          "internalType": "address",
          "name": "operator",
          "type": "address"
        },
        {
          "indexed": false,
          "internalType": "bool",
          "name": "approved",
          "type": "bool"
        }
      ],
      "name": "ApprovalForAll",
      "type": "event"
    },
    {
      "anonymous": false,
      "inputs": [
        {
          "indexed": true,
          "internalType": "uint256",
          "name": "tokenId",
          "type": "uint256"
        },
        {
          "indexed": false,
          "internalType": "address",
          "name": "creator",
          "type": "address"
        },
        {
          "indexed": false,
          "internalType": "address",
          "name": "seller",
          "type": "address"
        },
        {
          "indexed": false,
          "internalType": "address",
          "name": "owner",
          "type": "address"
        },
        {
          "indexed": false,
          "internalType": "uint256",
          "name": "price",
          "type": "uint256"
        },
        {
          "indexed": false,
          "internalType": "bool",
          "name": "sold",
          "type": "bool"
        },
        {
          "indexed": false,
          "internalType": "bool",
          "name": "auction",
          "type": "bool"
        },
        {
          "indexed": false,
          "internalType": "uint256",
          "name": "endTime",
          "type": "uint256"
        },
        {
          "indexed": false,
          "internalType": "bool",
          "name": "ended",
          "type": "bool"
        },
        {
          "indexed": false,
          "internalType": "uint256",
          "name": "highestBid",
          "type": "uint256"
        },
        {
          "indexed": false,
          "internalType": "address",
          "name": "highestBidder",
          "type": "address"
        }
      ],
      "name": "MarketItemCreated",
      "type": "event"
    },
    {
      "anonymous": false,
      "inputs": [
        {
          "indexed": true,
          "internalType": "address",
          "name": "from",
          "type": "address"
        },
        {
          "indexed": true,
          "internalType": "address",
          "name": "to",
          "type": "address"
        },
        {
          "indexed": true,
          "internalType": "uint256",
          "name": "tokenId",
          "type": "uint256"
        }
      ],
      "name": "Transfer",
      "type": "event"
    },
    {
      "anonymous": false,
      "inputs": [
        {
          "indexed": false,
          "internalType": "address",
          "name": "sender",
          "type": "address"
        },
        {
          "indexed": false,
          "internalType": "uint256",
          "name": "amount",
          "type": "uint256"
        },
        {
          "indexed": false,
          "internalType": "bool",
          "name": "bidder",
          "type": "bool"
        }
      ],
      "name": "Withdraw",
      "type": "event"
    },
    {
      "inputs": [
        {
          "internalType": "address",
          "name": "to",
          "type": "address"
        },
        {
          "internalType": "uint256",
          "name": "tokenId",
          "type": "uint256"
        }
      ],
      "name": "approve",
      "outputs": [],
      "stateMutability": "nonpayable",
      "type": "function"
    },
    {
      "inputs": [
        {
          "internalType": "address",
          "name": "owner",
          "type": "address"
        }
      ],
      "name": "balanceOf",
      "outputs": [
        {
          "internalType": "uint256",
          "name": "",
          "type": "uint256"
        }
      ],
      "stateMutability": "view",
      "type": "function"
    },
    {
      "inputs": [
        {
          "internalType": "uint256",
          "name": "tokenId",
          "type": "uint256"
        }
      ],
      "name": "bid",
      "outputs": [],
      "stateMutability": "payable",
      "type": "function"
    },
    {
      "inputs": [
        {
          "internalType": "uint256",
          "name": "",
          "type": "uint256"
        },
        {
          "internalType": "address",
          "name": "",
          "type": "address"
        }
      ],
      "name": "bids",
      "outputs": [
        {
          "internalType": "uint256",
          "name": "",
          "type": "uint256"
        }
      ],
      "stateMutability": "view",
      "type": "function"
    },
    {
      "inputs": [
        {
          "internalType": "uint256",
          "name": "tokenId",
          "type": "uint256"
        }
      ],
      "name": "createMarketSale",
      "outputs": [],
      "stateMutability": "payable",
      "type": "function"
    },
    {
      "inputs": [
        {
          "internalType": "string",
          "name": "tokenURI",
          "type": "string"
        },
        {
          "internalType": "uint256",
          "name": "price",
          "type": "uint256"
        },
        {
          "internalType": "bool",
          "name": "auction",
          "type": "bool"
        },
        {
          "internalType": "uint256",
          "name": "endTime",
          "type": "uint256"
        }
      ],
      "name": "createToken",
      "outputs": [
        {
          "internalType": "uint256",
          "name": "",
          "type": "uint256"
        }
      ],
      "stateMutability": "payable",
      "type": "function"
    },
    {
      "inputs": [
        {
          "internalType": "uint256",
          "name": "tokenId",
          "type": "uint256"
        }
      ],
      "name": "endAuction",
      "outputs": [],
      "stateMutability": "nonpayable",
      "type": "function"
    },
    {
      "inputs": [],
      "name": "fetchAuctionItems",
      "outputs": [
        {
          "components": [
            {
              "internalType": "uint256",
              "name": "tokenId",
              "type": "uint256"
            },
            {
              "internalType": "address",
              "name": "creator",
              "type": "address"
            },
            {
              "internalType": "address payable",
              "name": "seller",
              "type": "address"
            },
            {
              "internalType": "address payable",
              "name": "owner",
              "type": "address"
            },
            {
              "internalType": "uint256",
              "name": "price",
              "type": "uint256"
            },
            {
              "internalType": "bool",
              "name": "sold",
              "type": "bool"
            },
            {
              "internalType": "bool",
              "name": "auction",
              "type": "bool"
            },
            {
              "internalType": "uint256",
              "name": "endTime",
              "type": "uint256"
            },
            {
              "internalType": "bool",
              "name": "ended",
              "type": "bool"
            },
            {
              "internalType": "uint256",
              "name": "highestBid",
              "type": "uint256"
            },
            {
              "internalType": "address payable",
              "name": "highestBidder",
              "type": "address"
            }
          ],
          "internalType": "struct NFTMarketplace.MarketItem[]",
          "name": "",
          "type": "tuple[]"
        }
      ],
      "stateMutability": "view",
      "type": "function"
    },
    {
      "inputs": [],
      "name": "fetchAuctionedItems",
      "outputs": [
        {
          "components": [
            {
              "internalType": "uint256",
              "name": "tokenId",
              "type": "uint256"
            },
            {
              "internalType": "address",
              "name": "creator",
              "type": "address"
            },
            {
              "internalType": "address payable",
              "name": "seller",
              "type": "address"
            },
            {
              "internalType": "address payable",
              "name": "owner",
              "type": "address"
            },
            {
              "internalType": "uint256",
              "name": "price",
              "type": "uint256"
            },
            {
              "internalType": "bool",
              "name": "sold",
              "type": "bool"
            },
            {
              "internalType": "bool",
              "name": "auction",
              "type": "bool"
            },
            {
              "internalType": "uint256",
              "name": "endTime",
              "type": "uint256"
            },
            {
              "internalType": "bool",
              "name": "ended",
              "type": "bool"
            },
            {
              "internalType": "uint256",
              "name": "highestBid",
              "type": "uint256"
            },
            {
              "internalType": "address payable",
              "name": "highestBidder",
              "type": "address"
            }
          ],
          "internalType": "struct NFTMarketplace.MarketItem[]",
          "name": "",
          "type": "tuple[]"
        }
      ],
      "stateMutability": "view",
      "type": "function"
    },
    {
      "inputs": [],
      "name": "fetchCreatedItems",
      "outputs": [
        {
          "components": [
            {
              "internalType": "uint256",
              "name": "tokenId",
              "type": "uint256"
            },
            {
              "internalType": "address",
              "name": "creator",
              "type": "address"
            },
            {
              "internalType": "address payable",
              "name": "seller",
              "type": "address"
            },
            {
              "internalType": "address payable",
              "name": "owner",
              "type": "address"
            },
            {
              "internalType": "uint256",
              "name": "price",
              "type": "uint256"
            },
            {
              "internalType": "bool",
              "name": "sold",
              "type": "bool"
            },
            {
              "internalType": "bool",
              "name": "auction",
              "type": "bool"
            },
            {
              "internalType": "uint256",
              "name": "endTime",
              "type": "uint256"
            },
            {
              "internalType": "bool",
              "name": "ended",
              "type": "bool"
            },
            {
              "internalType": "uint256",
              "name": "highestBid",
              "type": "uint256"
            },
            {
              "internalType": "address payable",
              "name": "highestBidder",
              "type": "address"
            }
          ],
          "internalType": "struct NFTMarketplace.MarketItem[]",
          "name": "",
          "type": "tuple[]"
        }
      ],
      "stateMutability": "view",
      "type": "function"
    },
    {
      "inputs": [],
      "name": "fetchItemsListed",
      "outputs": [
        {
          "components": [
            {
              "internalType": "uint256",
              "name": "tokenId",
              "type": "uint256"
            },
            {
              "internalType": "address",
              "name": "creator",
              "type": "address"
            },
            {
              "internalType": "address payable",
              "name": "seller",
              "type": "address"
            },
            {
              "internalType": "address payable",
              "name": "owner",
              "type": "address"
            },
            {
              "internalType": "uint256",
              "name": "price",
              "type": "uint256"
            },
            {
              "internalType": "bool",
              "name": "sold",
              "type": "bool"
            },
            {
              "internalType": "bool",
              "name": "auction",
              "type": "bool"
            },
            {
              "internalType": "uint256",
              "name": "endTime",
              "type": "uint256"
            },
            {
              "internalType": "bool",
              "name": "ended",
              "type": "bool"
            },
            {
              "internalType": "uint256",
              "name": "highestBid",
              "type": "uint256"
            },
            {
              "internalType": "address payable",
              "name": "highestBidder",
              "type": "address"
            }
          ],
          "internalType": "struct NFTMarketplace.MarketItem[]",
          "name": "",
          "type": "tuple[]"
        }
      ],
      "stateMutability": "view",
      "type": "function"
    },
    {
      "inputs": [],
      "name": "fetchMarketItems",
      "outputs": [
        {
          "components": [
            {
              "internalType": "uint256",
              "name": "tokenId",
              "type": "uint256"
            },
            {
              "internalType": "address",
              "name": "creator",
              "type": "address"
            },
            {
              "internalType": "address payable",
              "name": "seller",
              "type": "address"
            },
            {
              "internalType": "address payable",
              "name": "owner",
              "type": "address"
            },
            {
              "internalType": "uint256",
              "name": "price",
              "type": "uint256"
            },
            {
              "internalType": "bool",
              "name": "sold",
              "type": "bool"
            },
            {
              "internalType": "bool",
              "name": "auction",
              "type": "bool"
            },
            {
              "internalType": "uint256",
              "name": "endTime",
              "type": "uint256"
            },
            {
              "internalType": "bool",
              "name": "ended",
              "type": "bool"
            },
            {
              "internalType": "uint256",
              "name": "highestBid",
              "type": "uint256"
            },
            {
              "internalType": "address payable",
              "name": "highestBidder",
              "type": "address"
            }
          ],
          "internalType": "struct NFTMarketplace.MarketItem[]",
          "name": "",
          "type": "tuple[]"
        }
      ],
      "stateMutability": "view",
      "type": "function"
    },
    {
      "inputs": [],
      "name": "fetchMyNFTs",
      "outputs": [
        {
          "components": [
            {
              "internalType": "uint256",
              "name": "tokenId",
              "type": "uint256"
            },
            {
              "internalType": "address",
              "name": "creator",
              "type": "address"
            },
            {
              "internalType": "address payable",
              "name": "seller",
              "type": "address"
            },
            {
              "internalType": "address payable",
              "name": "owner",
              "type": "address"
            },
            {
              "internalType": "uint256",
              "name": "price",
              "type": "uint256"
            },
            {
              "internalType": "bool",
              "name": "sold",
              "type": "bool"
            },
            {
              "internalType": "bool",
              "name": "auction",
              "type": "bool"
            },
            {
              "internalType": "uint256",
              "name": "endTime",
              "type": "uint256"
            },
            {
              "internalType": "bool",
              "name": "ended",
              "type": "bool"
            },
            {
              "internalType": "uint256",
              "name": "highestBid",
              "type": "uint256"
            },
            {
              "internalType": "address payable",
              "name": "highestBidder",
              "type": "address"
            }
          ],
          "internalType": "struct NFTMarketplace.MarketItem[]",
          "name": "",
          "type": "tuple[]"
        }
      ],
      "stateMutability": "view",
      "type": "function"
    },
    {
      "inputs": [
        {
          "internalType": "uint256",
          "name": "tokenId",
          "type": "uint256"
        }
      ],
      "name": "getApproved",
      "outputs": [
        {
          "internalType": "address",
          "name": "",
          "type": "address"
        }
      ],
      "stateMutability": "view",
      "type": "function"
    },
    {
      "inputs": [],
      "name": "getListingPrice",
      "outputs": [
        {
          "internalType": "uint256",
          "name": "",
          "type": "uint256"
        }
      ],
      "stateMutability": "view",
      "type": "function"
    },
    {
      "inputs": [
        {
          "internalType": "address",
          "name": "owner",
          "type": "address"
        },
        {
          "internalType": "address",
          "name": "operator",
          "type": "address"
        }
      ],
      "name": "isApprovedForAll",
      "outputs": [
        {
          "internalType": "bool",
          "name": "",
          "type": "bool"
        }
      ],
      "stateMutability": "view",
      "type": "function"
    },
    {
      "inputs": [],
      "name": "name",
      "outputs": [
        {
          "internalType": "string",
          "name": "",
          "type": "string"
        }
      ],
      "stateMutability": "view",
      "type": "function"
    },
    {
      "inputs": [
        {
          "internalType": "uint256",
          "name": "tokenId",
          "type": "uint256"
        }
      ],
      "name": "ownerOf",
      "outputs": [
        {
          "internalType": "address",
          "name": "",
          "type": "address"
        }
      ],
      "stateMutability": "view",
      "type": "function"
    },
    {
      "inputs": [
        {
          "internalType": "uint256",
          "name": "tokenId",
          "type": "uint256"
        },
        {
          "internalType": "uint256",
          "name": "price",
          "type": "uint256"
        },
        {
          "internalType": "uint256",
          "name": "endTime",
          "type": "uint256"
        }
      ],
      "name": "reauctionToken",
      "outputs": [],
      "stateMutability": "payable",
      "type": "function"
    },
    {
      "inputs": [
        {
          "internalType": "uint256",
          "name": "tokenId",
          "type": "uint256"
        },
        {
          "internalType": "uint256",
          "name": "price",
          "type": "uint256"
        }
      ],
      "name": "resellToken",
      "outputs": [],
      "stateMutability": "payable",
      "type": "function"
    },
    {
      "inputs": [
        {
          "internalType": "address",
          "name": "from",
          "type": "address"
        },
        {
          "internalType": "address",
          "name": "to",
          "type": "address"
        },
        {
          "internalType": "uint256",
          "name": "tokenId",
          "type": "uint256"
        }
      ],
      "name": "safeTransferFrom",
      "outputs": [],
      "stateMutability": "nonpayable",
      "type": "function"
    },
    {
      "inputs": [
        {
          "internalType": "address",
          "name": "from",
          "type": "address"
        },
        {
          "internalType": "address",
          "name": "to",
          "type": "address"
        },
        {
          "internalType": "uint256",
          "name": "tokenId",
          "type": "uint256"
        },
        {
          "internalType": "bytes",
          "name": "data",
          "type": "bytes"
        }
      ],
      "name": "safeTransferFrom",
      "outputs": [],
      "stateMutability": "nonpayable",
      "type": "function"
    },
    {
      "inputs": [
        {
          "internalType": "address",
          "name": "operator",
          "type": "address"
        },
        {
          "internalType": "bool",
          "name": "approved",
          "type": "bool"
        }
      ],
      "name": "setApprovalForAll",
      "outputs": [],
      "stateMutability": "nonpayable",
      "type": "function"
    },
    {
      "inputs": [
        {
          "internalType": "bytes4",
          "name": "interfaceId",
          "type": "bytes4"
        }
      ],
      "name": "supportsInterface",
      "outputs": [
        {
          "internalType": "bool",
          "name": "",
          "type": "bool"
        }
      ],
      "stateMutability": "view",
      "type": "function"
    },
    {
      "inputs": [],
      "name": "symbol",
      "outputs": [
        {
          "internalType": "string",
          "name": "",
          "type": "string"
        }
      ],
      "stateMutability": "view",
      "type": "function"
    },
    {
      "inputs": [
        {
          "internalType": "uint256",
          "name": "tokenId",
          "type": "uint256"
        }
      ],
      "name": "tokenURI",
      "outputs": [
        {
          "internalType": "string",
          "name": "",
          "type": "string"
        }
      ],
      "stateMutability": "view",
      "type": "function"
    },
    {
      "inputs": [
        {
          "internalType": "uint256",
          "name": "",
          "type": "uint256"
        },
        {
          "internalType": "uint256",
          "name": "",
          "type": "uint256"
        }
      ],
      "name": "trackingBidderAddress",
      "outputs": [
        {
          "internalType": "address",
          "name": "",
          "type": "address"
        }
      ],
      "stateMutability": "view",
      "type": "function"
    },
    {
      "inputs": [
        {
          "internalType": "uint256",
          "name": "",
          "type": "uint256"
        }
      ],
      "name": "trackingBidderCount",
      "outputs": [
        {
          "internalType": "uint256",
          "name": "",
          "type": "uint256"
        }
      ],
      "stateMutability": "view",
      "type": "function"
    },
    {
      "inputs": [
        {
          "internalType": "address",
          "name": "from",
          "type": "address"
        },
        {
          "internalType": "address",
          "name": "to",
          "type": "address"
        },
        {
          "internalType": "uint256",
          "name": "tokenId",
          "type": "uint256"
        }
      ],
      "name": "transferFrom",
      "outputs": [],
      "stateMutability": "nonpayable",
      "type": "function"
    },
    {
      "inputs": [
        {
          "internalType": "uint256",
          "name": "tokenId",
          "type": "uint256"
        }
      ],
      "name": "unlistMarketItem",
      "outputs": [],
      "stateMutability": "payable",
      "type": "function"
    },
    {
      "inputs": [
        {
          "internalType": "uint256",
          "name": "_listingPrice",
          "type": "uint256"
        }
      ],
      "name": "updateListingPrice",
      "outputs": [],
      "stateMutability": "payable",
      "type": "function"
    },
    {
      "inputs": [
        {
          "internalType": "uint256",
          "name": "tokenId",
          "type": "uint256"
        }
      ],
      "name": "withdraw",
      "outputs": [],
      "stateMutability": "payable",
      "type": "function"
    }
  ],
  "bytecode": "0x6080604052650246139ca8006009553480156200001b57600080fd5b506040518060400160405280601081526020016f4d657461766572736520546f6b656e7360801b815250604051806040016040528060048152602001631351551560e21b8152508160009081620000739190620001b6565b506001620000828282620001b6565b5050600a80546001600160a01b031916331790555062000286565b634e487b7160e01b600052604160045260246000fd5b634e487b7160e01b600052602260045260246000fd5b600281046001821680620000de57607f821691505b602082108103620000f357620000f3620000b3565b50919050565b60006200010a620001078381565b90565b92915050565b6200011b83620000f9565b81546008840282811b60001990911b908116901990911617825550505050565b60006200014a81848462000110565b505050565b818110156200016e57620001656000826200013b565b6001016200014f565b5050565b601f8211156200014a576000818152602090206020601f850104810160208510156200019b5750805b620001af6020601f8601048301826200014f565b5050505050565b81516001600160401b03811115620001d257620001d26200009d565b620001de8254620000c9565b620001eb82828562000172565b6020601f831160018114620002225760008415620002095750858201515b600019600886021c19811660028602178655506200027e565b600085815260208120601f198616915b8281101562000254578885015182556020948501946001909201910162000232565b86831015620002715784890151600019601f89166008021c191682555b6001600288020188555050505b505050505050565b613dbb80620002966000396000f3fe6080604052600436106101e35760003560e01c806354d54e0a11610102578063b88d4fde11610095578063c87b56dd11610064578063c87b56dd1461052b578063e219fc751461054b578063e978904f1461055e578063e985e9c51461058b57600080fd5b8063b88d4fde14610497578063b9a2de3a146104b7578063be9af536146104d7578063c6bc4514146104ea57600080fd5b806395d89b41116100d157806395d89b411461043a5780639ff82b3d1461044f578063a22cb46514610464578063ae677aa31461048457600080fd5b806354d54e0a146103d2578063615d1f03146103e75780636352211e146103fa57806370a082311461041a57600080fd5b80632e1a7d4d1161017a57806342842e0e1161014957806342842e0e1461037757806344e7877a14610397578063454a2ab3146103aa57806345f8fa80146103bd57600080fd5b80632e1a7d4d14610304578063339a4299146103175780633a30690c1461032c5780633f1ffcec1461033f57600080fd5b80630f08efe0116101b65780630f08efe01461028f57806312e85585146102b1578063202e3740146102cf57806323b872dd146102e457600080fd5b806301ffc9a7146101e857806306fdde031461021e578063081812fc14610240578063095ea7b31461026d575b600080fd5b3480156101f457600080fd5b50610208610203366004612c54565b6105ab565b6040516102159190612c7f565b60405180910390f35b34801561022a57600080fd5b506102336105fd565b6040516102159190612ce3565b34801561024c57600080fd5b5061026061025b366004612d05565b61068f565b6040516102159190612d40565b34801561027957600080fd5b5061028d610288366004612d62565b6106b6565b005b34801561029b57600080fd5b506102a4610744565b6040516102159190612ed9565b3480156102bd57600080fd5b506009545b6040516102159190612eea565b3480156102db57600080fd5b506102a46109b6565b3480156102f057600080fd5b5061028d6102ff366004612ef8565b610bb6565b61028d610312366004612d05565b610be7565b34801561032357600080fd5b506102a4610dcd565b61028d61033a366004612f48565b611041565b34801561034b57600080fd5b506102c261035a366004612f7d565b600c60209081526000928352604080842090915290825290205481565b34801561038357600080fd5b5061028d610392366004612ef8565b611118565b61028d6103a5366004612d05565b611133565b61028d6103b8366004612d05565b61122f565b3480156103c957600080fd5b506102a4611452565b3480156103de57600080fd5b506102a46116bc565b6102c26103f53660046130b6565b6118bf565b34801561040657600080fd5b50610260610415366004612d05565b611907565b34801561042657600080fd5b506102c2610435366004613134565b61193c565b34801561044657600080fd5b50610233611980565b34801561045b57600080fd5b506102a461198f565b34801561047057600080fd5b5061028d61047f366004613155565b611b8f565b61028d610492366004612d05565b611b9e565b3480156104a357600080fd5b5061028d6104b2366004613188565b611bcd565b3480156104c357600080fd5b5061028d6104d2366004612d05565b611bff565b61028d6104e5366004612d05565b611e83565b3480156104f657600080fd5b506102606105053660046131fb565b600e6020908152600092835260408084209091529082529020546001600160a01b031681565b34801561053757600080fd5b50610233610546366004612d05565b611f8f565b61028d6105593660046131fb565b612097565b34801561056a57600080fd5b506102c2610579366004612d05565b600d6020526000908152604090205481565b34801561059757600080fd5b506102086105a636600461321d565b61214c565b60006001600160e01b031982166380ac58cd60e01b14806105dc57506001600160e01b03198216635b5e139f60e01b145b806105f757506301ffc9a760e01b6001600160e01b03198316145b92915050565b60606000805461060c90613255565b80601f016020809104026020016040519081016040528092919081815260200182805461063890613255565b80156106855780601f1061065a57610100808354040283529160200191610685565b820191906000526020600020905b81548152906001019060200180831161066857829003601f168201915b5050505050905090565b600061069a8261217a565b506000908152600460205260409020546001600160a01b031690565b60006106c182611907565b9050806001600160a01b0316836001600160a01b0316036106fd5760405162461bcd60e51b81526004016106f4906132c2565b60405180910390fd5b336001600160a01b03821614806107195750610719813361214c565b6107355760405162461bcd60e51b81526004016106f49061332c565b61073f83836121b1565b505050565b6060600061075160075490565b90506000805b828110156107e65730600b600061076f846001613352565b81526020810191909152604001600020600301546001600160a01b03161480156107c15750600b60006107a3836001613352565b8152602081019190915260400160002060050154610100900460ff16155b156107d4576107d1600183613352565b91505b806107de81613365565b915050610757565b506000808267ffffffffffffffff81111561080357610803612fb0565b60405190808252806020026020018201604052801561083c57816020015b610829612bd6565b8152602001906001900390816108215790505b50905060005b848110156109ad5730600b600061085a846001613352565b81526020810191909152604001600020600301546001600160a01b03161480156108ac5750600b600061088e836001613352565b8152602081019190915260400160002060050154610100900460ff16155b1561099b5760006108be826001613352565b6000818152600b60209081526040918290208251610160810184528154815260018201546001600160a01b0390811693820193909352600282015483169381019390935260038101548216606084015260048101546080840152600581015460ff808216151560a0860152610100918290048116151560c0860152600683015460e0860152600783015416151590840152600881015461012084015260098101549091166101408301528551929350918590879081106109805761098061337f565b6020908102919091010152610996600186613352565b945050505b806109a581613365565b915050610842565b50949350505050565b606060006109c360075490565b905060008060005b83811015610a255733600b60006109e3846001613352565b81526020810191909152604001600020600301546001600160a01b031603610a1357610a10600184613352565b92505b80610a1d81613365565b9150506109cb565b5060008267ffffffffffffffff811115610a4157610a41612fb0565b604051908082528060200260200182016040528015610a7a57816020015b610a67612bd6565b815260200190600190039081610a5f5790505b50905060005b848110156109ad5733600b6000610a98846001613352565b81526020810191909152604001600020600301546001600160a01b031603610ba4576000610ac7826001613352565b6000818152600b60209081526040918290208251610160810184528154815260018201546001600160a01b0390811693820193909352600282015483169381019390935260038101548216606084015260048101546080840152600581015460ff808216151560a0860152610100918290048116151560c0860152600683015460e086015260078301541615159084015260088101546101208401526009810154909116610140830152855192935091859087908110610b8957610b8961337f565b6020908102919091010152610b9f600186613352565b945050505b80610bae81613365565b915050610a80565b610bc0338261221f565b610bdc5760405162461bcd60e51b81526004016106f4906133df565b61073f83838361227d565b6000818152600d602052604081205490805b82811015610d06576000848152600e602052604081203391610c1c846001613352565b81526020810191909152604001600020546001600160a01b031603610cf457610c46816001613352565b6000858152600c602090815260408083203384529091528120805491905590925080610c845760405162461bcd60e51b81526004016106f49061341b565b604051339082156108fc029083906000818181858888f19350505050158015610cb1573d6000803e3d6000fd5b507f039d3e7ccc0d8edf3fb8206bf9f58888c4cced8c157c730a2407a54aad7c865c33826001604051610ce69392919061342b565b60405180910390a150610d06565b80610cfe81613365565b915050610bf9565b5060008111610d275760405162461bcd60e51b81526004016106f490613474565b600160005b83811015610da5576000858152600e6020526040812081610d4e846001613352565b81526020808201929092526040908101600090812054898252600c84528282206001600160a01b039091168083529352205490915015610d92576000925050610da5565b5080610d9d81613365565b915050610d2c565b508015610dc7576000848152600b60205260409020600501805461ff00191690555b50505050565b60606000610dda60075490565b905060008060005b83811015610e765733600b6000610dfa846001613352565b81526020810191909152604001600020600201546001600160a01b0316148015610e515750600b6000610e2e836001613352565b815260208101919091526040016000206005015460ff6101009091041615156001145b15610e6457610e61600184613352565b92505b80610e6e81613365565b915050610de2565b5060008267ffffffffffffffff811115610e9257610e92612fb0565b604051908082528060200260200182016040528015610ecb57816020015b610eb8612bd6565b815260200190600190039081610eb05790505b50905060005b848110156109ad5733600b6000610ee9846001613352565b81526020810191909152604001600020600201546001600160a01b0316148015610f405750600b6000610f1d836001613352565b815260208101919091526040016000206005015460ff6101009091041615156001145b1561102f576000610f52826001613352565b6000818152600b60209081526040918290208251610160810184528154815260018201546001600160a01b0390811693820193909352600282015483169381019390935260038101548216606084015260048101546080840152600581015460ff808216151560a0860152610100918290048116151560c0860152600683015460e0860152600783015416151590840152600881015461012084015260098101549091166101408301528551929350918590879081106110145761101461337f565b602090810291909101015261102a600186613352565b945050505b8061103981613365565b915050610ed1565b6000838152600b60205260409020600301546001600160a01b0316331461107a5760405162461bcd60e51b81526004016106f4906134cb565b600954341461109b5760405162461bcd60e51b81526004016106f49061351c565b6000838152600b60205260409020600581018054600483018590556002830180546001600160a01b0319908116331790915560038401805490911630179055600880840186905561ffff1990911661010017909155600682018390556007909101805460ff1916905561110d906123b2565b61073f33308561227d565b61073f83838360405180602001604052806000815250611bcd565b6000818152600b60205260409020600201546009546001600160a01b039091169034146111725760405162461bcd60e51b81526004016106f490613573565b336001600160a01b0382161461119a5760405162461bcd60e51b81526004016106f4906135ac565b6000828152600b602052604090206003810180546001600160a01b0319908116331790915560058201805460ff191660011790556002909101805490911690556111e8600880546001019055565b6111f330338461227d565b600a546009546040516001600160a01b039092169181156108fc0291906000818181858888f1935050505015801561073f573d6000803e3d6000fd5b6000818152600b60205260409020600681015460088201546009909201549091906001600160a01b03164283116112785760405162461bcd60e51b81526004016106f4906135e4565b8134116112975760405162461bcd60e51b81526004016106f49061363f565b6001600160a01b03811615611424576000848152600c602090815260408083206001600160a01b0385168452909152812080548492906112d8908490613352565b90915550506000848152600d60205260408120549003611355576000848152600d60205260408120805460019290611311908490613352565b90915550506000848152600d6020908152604080832054600e8352818420908452909152902080546001600160a01b0319166001600160a01b038316179055611424565b6000848152600d6020526040812054905b818110156113c3576000868152600e602052604081206001600160a01b03851691611392846001613352565b81526020810191909152604001600020546001600160a01b0316146113c357806113bb81613365565b915050611366565b506000858152600d602052604081208054600192906113e3908490613352565b9091555050506000848152600d6020908152604080832054600e8352818420908452909152902080546001600160a01b0319166001600160a01b0383161790555b5050506000908152600b602052604090206009810180546001600160a01b0319163317905534600890910155565b6060600061145f60075490565b905060008060005b838110156114f65733600b600061147f846001613352565b81526020810191909152604001600020600201546001600160a01b03161480156114d15750600b60006114b3836001613352565b8152602081019190915260400160002060050154610100900460ff16155b156114e4576114e1600184613352565b92505b806114ee81613365565b915050611467565b5060008267ffffffffffffffff81111561151257611512612fb0565b60405190808252806020026020018201604052801561154b57816020015b611538612bd6565b8152602001906001900390816115305790505b50905060005b848110156109ad5733600b6000611569846001613352565b81526020810191909152604001600020600201546001600160a01b03161480156115bb5750600b600061159d836001613352565b8152602081019190915260400160002060050154610100900460ff16155b156116aa5760006115cd826001613352565b6000818152600b60209081526040918290208251610160810184528154815260018201546001600160a01b0390811693820193909352600282015483169381019390935260038101548216606084015260048101546080840152600581015460ff808216151560a0860152610100918290048116151560c0860152600683015460e08601526007830154161515908401526008810154610120840152600981015490911661014083015285519293509185908790811061168f5761168f61337f565b60209081029190910101526116a5600186613352565b945050505b806116b481613365565b915050611551565b606060006116c960075490565b90506000805b8281101561172b57600b60006116e6836001613352565b8152602081019190915260400160002060050154610100900460ff16151560010361171957611716600183613352565b91505b8061172381613365565b9150506116cf565b506000808267ffffffffffffffff81111561174857611748612fb0565b60405190808252806020026020018201604052801561178157816020015b61176e612bd6565b8152602001906001900390816117665790505b50905060005b848110156109ad57600b600061179e836001613352565b8152602081019190915260400160002060050154610100900460ff1615156001036118ad5760006117d0826001613352565b6000818152600b60209081526040918290208251610160810184528154815260018201546001600160a01b0390811693820193909352600282015483169381019390935260038101548216606084015260048101546080840152600581015460ff808216151560a0860152610100918290048116151560c0860152600683015460e0860152600783015416151590840152600881015461012084015260098101549091166101408301528551929350918590879081106118925761189261337f565b60209081029190910101526118a8600186613352565b945050505b806118b781613365565b915050611787565b60006118cf600780546001019055565b60006118da60075490565b90506118e633826123d9565b6118f081876124e2565b6118fc8186868661252e565b90505b949350505050565b6000818152600260205260408120546001600160a01b0316806105f75760405162461bcd60e51b81526004016106f490613683565b60006001600160a01b0382166119645760405162461bcd60e51b81526004016106f4906136d9565b506001600160a01b031660009081526003602052604090205490565b60606001805461060c90613255565b6060600061199c60075490565b905060008060005b838110156119fe5733600b60006119bc846001613352565b81526020810191909152604001600020600101546001600160a01b0316036119ec576119e9600184613352565b92505b806119f681613365565b9150506119a4565b5060008267ffffffffffffffff811115611a1a57611a1a612fb0565b604051908082528060200260200182016040528015611a5357816020015b611a40612bd6565b815260200190600190039081611a385790505b50905060005b848110156109ad5733600b6000611a71846001613352565b81526020810191909152604001600020600101546001600160a01b031603611b7d576000611aa0826001613352565b6000818152600b60209081526040918290208251610160810184528154815260018201546001600160a01b0390811693820193909352600282015483169381019390935260038101548216606084015260048101546080840152600581015460ff808216151560a0860152610100918290048116151560c0860152600683015460e086015260078301541615159084015260088101546101208401526009810154909116610140830152855192935091859087908110611b6257611b6261337f565b6020908102919091010152611b78600186613352565b945050505b80611b8781613365565b915050611a59565b611b9a33838361279b565b5050565b600a546001600160a01b03163314611bc85760405162461bcd60e51b81526004016106f490613736565b600955565b611bd7338361221f565b611bf35760405162461bcd60e51b81526004016106f4906133df565b610dc78484848461283d565b6000818152600d6020908152604080832054600b909252909120600681015460079091015460ff168015611c455760405162461bcd60e51b81526004016106f4906135e4565b6000848152600b60205260409020600701805460ff19166001179055611c6f600880546001019055565b6000848152600b60205260409020600281015460098201546008909201546001600160a01b0391821692909116908115611dfd576000878152600b602090815260408083206003810180546001600160a01b03199081166001600160a01b038916179091556005820180546002840180548416905561ffff191661010117905560098201805490911690556008810184905560040184905580519182019052908152611d2090309084908a9061283d565b6040516001600160a01b0384169082156108fc029083906000818181858888f19350505050158015611d56573d6000803e3d6000fd5b50600160005b87811015611dd5576000898152600e6020526040812081611d7e846001613352565b815260208082019290925260409081016000908120548d8252600c84528282206001600160a01b039091168083529352205490915015611dc2576000925050611dd5565b5080611dcd81613365565b915050611d5c565b508015611df7576000888152600b60205260409020600501805461ff00191690555b50611e7a565b6000878152600b602090815260408083206003810180546001600160a01b0389166001600160a01b03199182168117909255600583018054600285018054841690941790935561ffff19909216600117909155600982018054909116905560080183905580519182019052908152611e7a90309085908a9061283d565b50505050505050565b6000818152600b6020526040902060048101546002909101546001600160a01b0316348214611ec45760405162461bcd60e51b81526004016106f4906137a0565b6000838152600b602052604090206003810180546001600160a01b0319908116331790915560058201805460ff19166001179055600290910180549091169055611f12600880546001019055565b611f1d30338561227d565b600a546009546040516001600160a01b039092169181156108fc0291906000818181858888f19350505050158015611f59573d6000803e3d6000fd5b506040516001600160a01b038216903480156108fc02916000818181858888f19350505050158015610dc7573d6000803e3d6000fd5b6060611f9a8261217a565b60008281526006602052604081208054611fb390613255565b80601f0160208091040260200160405190810160405280929190818152602001828054611fdf90613255565b801561202c5780601f106120015761010080835404028352916020019161202c565b820191906000526020600020905b81548152906001019060200180831161200f57829003601f168201915b50505050509050600061204a60408051602081019091526000815290565b9050805160000361205c575092915050565b81511561208e5780826040516020016120769291906137d2565b60405160208183030381529060405292505050919050565b6118ff84612870565b6000828152600b60205260409020600301546001600160a01b031633146120d05760405162461bcd60e51b81526004016106f4906134cb565b60095434146120f15760405162461bcd60e51b81526004016106f49061351c565b6000828152600b6020526040902060058101805460ff19169055600481018290556002810180546001600160a01b03199081163317909155600390910180549091163017905561214160086123b2565b611b9a33308461227d565b6001600160a01b03918216600090815260056020908152604080832093909416825291909152205460ff1690565b6000818152600260205260409020546001600160a01b03166121ae5760405162461bcd60e51b81526004016106f490613683565b50565b600081815260046020526040902080546001600160a01b0319166001600160a01b03841690811790915581906121e682611907565b6001600160a01b03167f8c5be1e5ebec7d5bd14f71427d1e84f3dd0314c0f7b2291e5b200ac8c7c3b92560405160405180910390a45050565b60008061222b83611907565b9050806001600160a01b0316846001600160a01b031614806122525750612252818561214c565b806118ff5750836001600160a01b031661226b8461068f565b6001600160a01b031614949350505050565b826001600160a01b031661229082611907565b6001600160a01b0316146122b65760405162461bcd60e51b81526004016106f49061382c565b6001600160a01b0382166122dc5760405162461bcd60e51b81526004016106f49061387d565b6122e983838360016128e4565b826001600160a01b03166122fc82611907565b6001600160a01b0316146123225760405162461bcd60e51b81526004016106f49061382c565b600081815260046020908152604080832080546001600160a01b03199081169091556001600160a01b0387811680865260038552838620805460001901905590871680865283862080546001019055868652600290945282852080549092168417909155905184937fddf252ad1be2c89b69c2b068fc378daa952ba7f163c4a11628f55a4df523b3ef91a4505050565b8054806123d15760405162461bcd60e51b81526004016106f4906138c1565b600019019055565b6001600160a01b0382166123ff5760405162461bcd60e51b81526004016106f490613903565b6000818152600260205260409020546001600160a01b0316156124345760405162461bcd60e51b81526004016106f490613947565b6124426000838360016128e4565b6000818152600260205260409020546001600160a01b0316156124775760405162461bcd60e51b81526004016106f490613947565b6001600160a01b038216600081815260036020908152604080832080546001019055848352600290915280822080546001600160a01b0319168417905551839291907fddf252ad1be2c89b69c2b068fc378daa952ba7f163c4a11628f55a4df523b3ef908290a45050565b6000828152600260205260409020546001600160a01b03166125165760405162461bcd60e51b81526004016106f4906139a2565b600082815260066020526040902061073f8282613a52565b6000831161254e5760405162461bcd60e51b81526004016106f490613b4a565b600954341461256f5760405162461bcd60e51b81526004016106f490613b9b565b604051806101600160405280858152602001336001600160a01b03168152602001336001600160a01b03168152602001306001600160a01b03168152602001848152602001600015158152602001831515815260200182815260200160001515815260200184815260200160006001600160a01b0316815250600b60008681526020019081526020016000206000820151816000015560208201518160010160006101000a8154816001600160a01b0302191690836001600160a01b0316021790555060408201518160020160006101000a8154816001600160a01b0302191690836001600160a01b0316021790555060608201518160030160006101000a8154816001600160a01b0302191690836001600160a01b031602179055506080820151816004015560a08201518160050160006101000a81548160ff02191690831515021790555060c08201518160050160016101000a81548160ff02191690831515021790555060e082015181600601556101008201518160070160006101000a81548160ff02191690831515021790555061012082015181600801556101408201518160090160006101000a8154816001600160a01b0302191690836001600160a01b0316021790555090505061274833308661227d565b837fa4b4f46cc52348966722b5ccac7c3b6eeffc992aaf09e6b4520bd06f1d33821e333330876000888860008c600060405161278d9a99989796959493929190613bca565b60405180910390a250505050565b816001600160a01b0316836001600160a01b0316036127cc5760405162461bcd60e51b81526004016106f490613c93565b6001600160a01b0383811660008181526005602090815260408083209487168084529490915290819020805460ff1916851515179055517f17307eab39ab6107e8899845ad3d59bd9653f200f220920489ca2b5937696c3190612830908590612c7f565b60405180910390a3505050565b61284884848461227d565b6128548484848461296c565b610dc75760405162461bcd60e51b81526004016106f490613cf2565b606061287b8261217a565b600061289260408051602081019091526000815290565b905060008151116128b257604051806020016040528060008152506128dd565b806128bc84612a6a565b6040516020016128cd9291906137d2565b6040516020818303038152906040525b9392505050565b6001811115610dc7576001600160a01b0384161561292a576001600160a01b03841660009081526003602052604081208054839290612924908490613d02565b90915550505b6001600160a01b03831615610dc7576001600160a01b03831660009081526003602052604081208054839290612961908490613352565b909155505050505050565b60006001600160a01b0384163b15612a6257604051630a85bd0160e11b81526001600160a01b0385169063150b7a02906129b0903390899088908890600401613d15565b6020604051808303816000875af19250505080156129eb575060408051601f3d908101601f191682019092526129e891810190613d64565b60015b612a48573d808015612a19576040519150601f19603f3d011682016040523d82523d6000602084013e612a1e565b606091505b508051600003612a405760405162461bcd60e51b81526004016106f490613cf2565b805181602001fd5b6001600160e01b031916630a85bd0160e11b1490506118ff565b5060016118ff565b60606000612a7783612afe565b600101905060008167ffffffffffffffff811115612a9757612a97612fb0565b6040519080825280601f01601f191660200182016040528015612ac1576020820181803683370190505b5090508181016020015b600019016f181899199a1a9b1b9c1cb0b131b232b360811b600a86061a8153600a8504945084612acb575b509392505050565b60008072184f03e93ff9f4daa797ed6e38ed64bf6a1f0160401b8310612b3d5772184f03e93ff9f4daa797ed6e38ed64bf6a1f0160401b830492506040015b6d04ee2d6d415b85acef81000000008310612b69576d04ee2d6d415b85acef8100000000830492506020015b662386f26fc100008310612b8757662386f26fc10000830492506010015b6305f5e1008310612b9f576305f5e100830492506008015b6127108310612bb357612710830492506004015b60648310612bc5576064830492506002015b600a83106105f75760010192915050565b6040805161016081018252600080825260208201819052918101829052606081018290526080810182905260a0810182905260c0810182905260e081018290526101008101829052610120810182905261014081019190915290565b6001600160e01b031981165b81146121ae57600080fd5b80356105f781612c32565b600060208284031215612c6957612c69600080fd5b60006118ff8484612c49565b8015155b82525050565b602081016105f78284612c75565b60005b83811015612ca8578181015183820152602001612c90565b50506000910152565b6000612cbb825190565b808452602084019350612cd2818560208601612c8d565b601f01601f19169290920192915050565b602080825281016128dd8184612cb1565b80612c3e565b80356105f781612cf4565b600060208284031215612d1a57612d1a600080fd5b60006118ff8484612cfa565b60006001600160a01b0382166105f7565b612c7981612d26565b602081016105f78284612d37565b612c3e81612d26565b80356105f781612d4e565b60008060408385031215612d7857612d78600080fd5b6000612d848585612d57565b9250506020612d9585828601612cfa565b9150509250929050565b80612c79565b8051610160830190612db78482612d9f565b506020820151612dca6020850182612d37565b506040820151612ddd6040850182612d37565b506060820151612df06060850182612d37565b506080820151612e036080850182612d9f565b5060a0820151612e1660a0850182612c75565b5060c0820151612e2960c0850182612c75565b5060e0820151612e3c60e0850182612d9f565b50610100820151612e51610100850182612c75565b50610120820151612e66610120850182612d9f565b50610140820151610dc7610140850182612d37565b6000612e878383612da5565b50506101600190565b6000612e9a825190565b80845260209384019383018060005b83811015612ece578151612ebd8882612e7b565b975060208301925050600101612ea9565b509495945050505050565b602080825281016128dd8184612e90565b602081016105f78284612d9f565b600080600060608486031215612f1057612f10600080fd5b6000612f1c8686612d57565b9350506020612f2d86828701612d57565b9250506040612f3e86828701612cfa565b9150509250925092565b600080600060608486031215612f6057612f60600080fd5b6000612f6c8686612cfa565b9350506020612f2d86828701612cfa565b60008060408385031215612f9357612f93600080fd5b6000612f9f8585612cfa565b9250506020612d9585828601612d57565b634e487b7160e01b600052604160045260246000fd5b601f19601f830116810181811067ffffffffffffffff82111715612fec57612fec612fb0565b6040525050565b6000612ffe60405190565b905061300a8282612fc6565b919050565b600067ffffffffffffffff82111561302957613029612fb0565b601f19601f83011660200192915050565b82818337506000910152565b60006130596130548461300f565b612ff3565b90508281526020810184848401111561307457613074600080fd5b612af684828561303a565b600082601f83011261309357613093600080fd5b81356118ff848260208601613046565b801515612c3e565b80356105f7816130a3565b600080600080608085870312156130cf576130cf600080fd5b843567ffffffffffffffff8111156130e9576130e9600080fd5b6130f58782880161307f565b945050602061310687828801612cfa565b9350506040613117878288016130ab565b925050606061312887828801612cfa565b91505092959194509250565b60006020828403121561314957613149600080fd5b60006118ff8484612d57565b6000806040838503121561316b5761316b600080fd5b60006131778585612d57565b9250506020612d95858286016130ab565b600080600080608085870312156131a1576131a1600080fd5b60006131ad8787612d57565b94505060206131be87828801612d57565b93505060406131cf87828801612cfa565b925050606085013567ffffffffffffffff8111156131ef576131ef600080fd5b6131288782880161307f565b6000806040838503121561321157613211600080fd5b6000612d848585612cfa565b6000806040838503121561323357613233600080fd5b6000612f9f8585612d57565b634e487b7160e01b600052602260045260246000fd5b60028104600182168061326957607f821691505b60208210810361327b5761327b61323f565b50919050565b602181526000602082017f4552433732313a20617070726f76616c20746f2063757272656e74206f776e658152603960f91b602082015291505b5060400190565b602080825281016105f781613281565b603d81526000602082017f4552433732313a20617070726f76652063616c6c6572206973206e6f7420746f81527f6b656e206f776e6572206f7220617070726f76656420666f7220616c6c000000602082015291506132bb565b602080825281016105f7816132d2565b634e487b7160e01b600052601160045260246000fd5b808201808211156105f7576105f761333c565b600060001982036133785761337861333c565b5060010190565b634e487b7160e01b600052603260045260246000fd5b602d81526000602082017f4552433732313a2063616c6c6572206973206e6f7420746f6b656e206f776e6581526c1c881bdc88185c1c1c9bdd9959609a1b602082015291506132bb565b602080825281016105f781613395565b6012815260006020820171105b1c9958591e481dda5d1a191c985dd95960721b815291505b5060200190565b602080825281016105f7816133ef565b606081016134398286612d37565b6134466020830185612d9f565b6118ff6040830184612c75565b600a8152600060208201692737ba103134b23232b960b11b81529150613414565b602080825281016105f781613453565b602a81526000602082017f4f6e6c79206974656d206f776e65722063616e20706572666f726d20746869738152691037b832b930ba34b7b760b11b602082015291506132bb565b602080825281016105f781613484565b602481526000602082017f5072696365206d75737420626520657175616c20746f206c697374696e6720708152637269636560e01b602082015291506132bb565b602080825281016105f7816134db565b602a81526000602082017f506c65617365207375626d69742076616c756520657175616c20746f206c697381526974696e6720707269636560b01b602082015291506132bb565b602080825281016105f78161352c565b60128152600060208201712cb7ba9030b932903737ba1039b2b63632b960711b81529150613414565b602080825281016105f781613583565b6011815260006020820170105d58dd1a5bdb881a185cc8195b991959607a1b81529150613414565b602080825281016105f7816135bc565b602e81526000602082017f56616c7565206d7573742062652067726561746572207468616e20637572726581526d1b9d081a1a59da195cdd08189a5960921b602082015291506132bb565b602080825281016105f7816135f4565b601881526000602082017f4552433732313a20696e76616c696420746f6b656e204944000000000000000081529150613414565b602080825281016105f78161364f565b602981526000602082017f4552433732313a2061646472657373207a65726f206973206e6f7420612076618152683634b21037bbb732b960b91b602082015291506132bb565b602080825281016105f781613693565b603081526000602082017f4f6e6c79206d61726b6574706c616365206f776e65722063616e20757064617481526f32903634b9ba34b73390383934b1b29760811b602082015291506132bb565b602080825281016105f7816136e9565b604081526000602082017f506c65617365207375626d6974207468652061736b696e67207072696365206981527f6e206f7264657220746f20636f6d706c65746520746865207075726368617365602082015291506132bb565b602080825281016105f781613746565b60006137ba825190565b6137c8818560208601612c8d565b9290920192915050565b60006137de82856137b0565b91506118ff82846137b0565b602581526000602082017f4552433732313a207472616e736665722066726f6d20696e636f72726563742081526437bbb732b960d91b602082015291506132bb565b602080825281016105f7816137ea565b602481526000602082017f4552433732313a207472616e7366657220746f20746865207a65726f206164648152637265737360e01b602082015291506132bb565b602080825281016105f78161383c565b601b81526000602082017f436f756e7465723a2064656372656d656e74206f766572666c6f77000000000081529150613414565b602080825281016105f78161388d565b60208082527f4552433732313a206d696e7420746f20746865207a65726f206164647265737391019081526000613414565b602080825281016105f7816138d1565b601c81526000602082017f4552433732313a20746f6b656e20616c7265616479206d696e7465640000000081529150613414565b602080825281016105f781613913565b602e81526000602082017f45524337323155524953746f726167653a2055524920736574206f66206e6f6e81526d32bc34b9ba32b73a103a37b5b2b760911b602082015291506132bb565b602080825281016105f781613957565b60006105f76139be8381565b90565b6139ca836139b2565b81546008840282811b60001990911b908116901990911617825550505050565b600061073f8184846139c1565b81811015611b9a57613a0a6000826139ea565b6001016139f7565b601f82111561073f576000818152602090206020601f85010481016020851015613a395750805b613a4b6020601f8601048301826139f7565b5050505050565b815167ffffffffffffffff811115613a6c57613a6c612fb0565b613a768254613255565b613a81828285613a12565b6020601f831160018114613ab55760008415613a9d5750858201515b600019600886021c1981166002860217865550613b0e565b600085815260208120601f198616915b82811015613ae55788850151825560209485019460019092019101613ac5565b86831015613b015784890151600019601f89166008021c191682555b6001600288020188555050505b505050505050565b601c81526000602082017f5072696365206d757374206265206174206c656173742031207765690000000081529150613414565b602080825281016105f781613b16565b602481526000602082017f56616c7565206d75737420626520657175616c20746f206c697374696e6720708152637269636560e01b602082015291506132bb565b602080825281016105f781613b5a565b60006105f782612d26565b60006105f782613bab565b612c7981613bb6565b6101408101613bd9828d612d37565b613be6602083018c612d37565b613bf3604083018b612d37565b613c00606083018a612d9f565b613c0d6080830189612c75565b613c1a60a0830188612c75565b613c2760c0830187612d9f565b613c3460e0830186612c75565b613c42610100830185612d9f565b613c50610120830184613bc1565b9b9a5050505050505050505050565b601981526000602082017f4552433732313a20617070726f766520746f2063616c6c65720000000000000081529150613414565b602080825281016105f781613c5f565b603281526000602082017f4552433732313a207472616e7366657220746f206e6f6e20455243373231526581527131b2b4bb32b91034b6b83632b6b2b73a32b960711b602082015291506132bb565b602080825281016105f781613ca3565b818103818111156105f7576105f761333c565b60808101613d238287612d37565b613d306020830186612d37565b613d3d6040830185612d9f565b8181036060830152613d4f8184612cb1565b9695505050505050565b80516105f781612c32565b600060208284031215613d7957613d79600080fd5b60006118ff8484613d5956fea2646970667358221220d94820e33132c3610ae10ac3c7ed1fb73d1fe490edf696adae52ef2cba32667564736f6c63430008110033",
  "linkReferences": {},
  "deployedLinkReferences": {}
}